:100000000C945D000C9485000C9485000C94850084
:100010000C9485000C9485000C9485000C9485004C
:100020000C9485000C9485000C9485000C9485003C
:100030000C9485000C9485000C9485000C9485002C
:100040000C940E040C9485000C947E040C945804BB
:100050000C9485000C9485000C9485000C9485000C
:100060000C9485000C94850000000008000201003B
:100070000003040700000000000000000000000072
:10008000250028002B0000000000240027002A0083
:10009000040404040404040402020202020203032E
:1000A0000303030301020408102040800102040836
:1000B0001020010204081020B00411241FBECFEF4D
:1000C000D8E0DEBFCDBF22E0A6EBB1E001C01D92BB
:1000D000A837B207E1F711E0A0E0B1E0E6E0F2E115
:1000E00002C005900D92A63BB107D9F710E0CDE50F
:1000F000D0E004C02197FE010E94FF06CC35D10755
:10010000C9F70E94FA040C9401090C94000090E0D5
:10011000FC01EC55FF4F2491FC01E057FF4F849107
:10012000882399F090E0880F991FFC01EA57FF4F50
:10013000A591B491FC01E458FF4F859194918FB73C
:10014000F894EC91E22BEC938FBF089590E0FC01C2
:10015000E859FF4F2491FC01EC55FF4F3491FC010D
:10016000E057FF4FE491EE2309F43CC0222339F11C
:10017000233091F038F42130A9F0223001F584B514
:100180008F7D12C0273091F02830A1F02430B9F4CF
:10019000809180008F7D03C0809180008F77809355
:1001A00080000DC084B58F7784BD09C08091B000F8
:1001B0008F7703C08091B0008F7D8093B000F0E016
:1001C000EE0FFF1FE458FF4FA591B4919FB7F8942D
:1001D000611104C08C913095382302C0EC913E2B04
:1001E0003C939FBF08953FB7F8948091BB019091D5
:1001F000BC01A091BD01B091BE0126B5A89B05C070
:100200002F3F19F00196A11DB11D3FBFBA2FA92F95
:10021000982F8827820F911DA11DB11DBC01CD0112
:1002200042E0660F771F881F991F4A95D1F70895FE
:100230008F929F92AF92BF92CF92DF92EF92FF92F6
:100240006B017C010E94F3004B015C01C114D104DD
:10025000E104F104F1F00E94F300DC01CB01881904
:100260009909AA09BB09883E9340A105B10570F31D
:1002700021E0C21AD108E108F10888EE880E83E077
:10028000981EA11CB11CC114D104E104F10419F79A
:10029000DDCFFF90EF90DF90CF90BF90AF909F9019
:1002A0008F900895CF92DF92EF92FF920F931F935A
:1002B000CF93DF936C017A018B01C0E0D0E0CE15C3
:1002C000DF0581F0D8016D918D01D601ED91FC9192
:1002D0000190F081E02DC6010995892B11F021963E
:1002E000EECF7E01C701DF91CF911F910F91FF905B
:1002F000EF90DF90CF900895FC01538D448D252F12
:1003000030E0842F90E0821B930B541710F0CF96AF
:10031000089501970895FC01918D828D981761F0E1
:10032000828DDF01A80FB11D5D968C91928D9F5F2C
:100330009F73928F90E008958FEF9FEF0895FC01D7
:10034000918D828D981731F0828DE80FF11D858D8A
:1003500090E008958FEF9FEF0895FC01918D228D1D
:10036000892F90E0805C9F4F821B91098F739927A2
:1003700008958FEB91E00E94AD0121E0892B09F4F3
:1003800020E0822F0895FC01848DDF01A80FB11DAC
:10039000A35ABF4F2C91848D90E001968F739927BB
:1003A000848FA689B7892C93A089B1898C91837099
:1003B00080648C93938D848D981306C00288F38992
:1003C000E02D80818F7D80830895EF92FF920F93BF
:1003D0001F93CF93DF93EC0181E0888F9B8D8C8DF1
:1003E000981305C0E889F989808185FD26C0F62E1D
:1003F0000B8D10E00F5F1F4F0F731127E02E8C8DB8
:10040000E8120CC00FB607FCFACFE889F9898081A1
:1004100085FFF5CFCE010E94C301F1CF8B8DFE0188
:10042000E80FF11DE35AFF4FF0829FB7F8940B8F4E
:10043000EA89FB89808180620AC09FB7F894EE89BF
:10044000FF896083E889F989808183708064808373
:100450009FBF81E090E0DF91CF911F910F91FF90BE
:10046000EF900895CF93DF93EC01888D8823C9F036
:10047000EA89FB89808185FD05C0A889B9898C91AD
:1004800086FD0FC00FB607FCF5CF808185FFF2CF48
:10049000A889B9898C9185FFEDCFCE010E94C30157
:1004A000E7CFDF91CF91089580E090E0892B29F08C
:1004B0000E94B90181110C9400000895CF93DF933D
:1004C000EC0160E08E810E94A60061E08E810E94B6
:1004D000A60060E08E810E94A6008BE891E0019763
:1004E000F1F7DF91CF910895CF92DF92EF92FF92D3
:1004F0000F931F93CF93DF936C017C0187E0E80E8D
:10050000F11CC0E0D0E0062F10E0B8010C2E02C0B4
:10051000759567950A94E2F76170F70181917F0103
:100520000E94A6002196C430D10579F7C601DF915B
:10053000CF911F910F91FF90EF90DF90CF900C948F
:100540005E02CF92DF92EF92FF920F931F93CF93B1
:10055000DF93EC01F62E642F8C810E94A6008D8122
:100560008F3F19F060E00E94A6008F850F2D10E0EC
:1005700084FF25C06E0187E0C80ED11CE12CF12C50
:10058000B8010E2C02C0759567950A94E2F7617068
:10059000F60181916F010E94A600FFEFEF1AFF0A9A
:1005A00088E0E816F10461F7CE01DF91CF911F9149
:1005B0000F91FF90EF90DF90CF900C945E02B80106
:1005C00084E0759567958A95E1F7CE010E947402E3
:1005D0006F2DCE01DF91CF911F910F91FF90EF9082
:1005E000DF90CF900C94740240E0682F8CE592E08D
:1005F0000C94A102CF93DF93823028F090916B028C
:10060000986090936B0280936F021092700280E466
:100610008093710280E18093720280E5809373027F
:10062000809160020E948700809161028F3F11F0EB
:100630000E948700809162020E948700CCE5D2E090
:100640009E012C55324080916B0284FD03C084E0F2
:1006500090E002C088E090E021962817390724F442
:100660008E810E948700ECCF8BE39DE00197F1F72C
:1006700060E0809160020E94A60060E080916202CA
:100680000E94A600809161028F3F19F060E00E94F5
:10069000A60080916B0284FD20C063E08CE592E0AF
:1006A0000E947402CBE4D6E4CE010197F1F763E037
:1006B0008CE592E00E9474022197F1F763E08CE5EB
:1006C00092E00E94740283E592E00197F1F762E004
:1006D0008CE592E00E94740215C080620E94F402D0
:1006E0008BE496E40197F1F780916B0280620E949F
:1006F000F40283E592E00197F1F780916B0280624A
:100700000E94F40280916B0280620E94F40284E0F5
:1007100080936C028CE00E94F40281E00E94F4025B
:100720008BE39FE10197F1F782E080936D0286E011
:10073000DF91CF910C94F40241E00E94A10281E08C
:1007400090E00895089580E090E00895CF93DF93BE
:10075000EC0188819981009711F00E949D07198210
:1007600018821D821C821B821A82DF91CF9108950C
:100770006115710579F0FB0101900020E9F73197CF
:10078000AF01461B570BDC01ED91FC910280F38118
:10079000E02D099480E090E00895CF93DF93BC01B1
:1007A0008FEB91E00E94B803EC0164E271E08FEB03
:1007B00091E00E94B8038C0F9D1FDF91CF910895A7
:1007C000BC018CE592E00C94B8030E94EC080F93F6
:1007D0001F93CF93DF93EC0188819981009729F0D3
:1007E0002A813B812617370788F48B016F5F7F4F83
:1007F0000E942608009761F0998388831B830A83EF
:100800002C813D81232B11F4FC01108281E001C079
:1008100080E0DF91CF911F910F9108951F920F9269
:100820000FB60F9211242F933F938F939F93AF9303
:10083000BF938091B7019091B801A091B901B09197
:10084000BA013091B60123E0230F2D3720F4019631
:10085000A11DB11D05C026E8230F0296A11DB11DE3
:100860002093B6018093B7019093B801A093B9018A
:10087000B093BA018091BB019091BC01A091BD01E0
:10088000B091BE010196A11DB11D8093BB01909353
:10089000BC01A093BD01B093BE01BF91AF919F91E8
:1008A0008F913F912F910F900FBE0F901F90189531
:1008B0001F920F920FB60F9211242F933F934F93D5
:1008C0005F936F937F938F939F93AF93BF93EF93B8
:1008D000FF938FEB91E00E94C301FF91EF91BF91D5
:1008E000AF919F918F917F916F915F914F913F91C8
:1008F0002F910F900FBE0F901F9018951F920F927F
:100900000FB60F9211242F938F939F93EF93FF9322
:10091000E091CF01F091D0018081E091D501F0917B
:10092000D60182FD12C090818091D8018F5F8F73B4
:100930002091D901821751F0E091D801F0E0E15403
:10094000FE4F958F8093D80101C08081FF91EF9178
:100950009F918F912F910F900FBE0F901F90189520
:10096000EFEBF1E01382128288EE93E0A0E0B0E0BA
:1009700084839583A683B7838AE091E09183808303
:1009800085EC90E09587848784EC90E09787868754
:1009900080EC90E0918B808B81EC90E0938B828B4C
:1009A00082EC90E0958B848B86EC90E0978B868B25
:1009B000118E128E138E148EECE5F2E013821282E9
:1009C0008CE191E0918380838EE084838FEF858337
:1009D0008FE0868380E1878381E1808782E1818760
:1009E00083E182871386148615861686178681E032
:1009F0000C94FA02CF93DF93CDB7DEB72C970FB6E6
:100A0000F894DEBF0FBECDBF789484B5826084BDFC
:100A100084B5816084BD85B5826085BD85B5816002
:100A200085BD80916E00816080936E001092810080
:100A3000809181008260809381008091810081603B
:100A400080938100809180008160809380008091FC
:100A5000B10084608093B1008091B0008160809388
:100A6000B00080917A00846080937A0080917A004F
:100A7000826080937A0080917A00816080937A000E
:100A800080917A00806880937A001092C10082E0A1
:100A90000E94FA0287E291E00E94E003E0916F0277
:100AA000E23010F4E15001C0E1E0F0E0E45AFD4F23
:100AB000848980680E94F40286E391E00E94E0034A
:100AC00068EE73E080E090E00E94180114E0812F4E
:100AD0000E94870060E0812F0E94A6001F5F1830EF
:100AE000B1F7E091CF01F091D00182E08083E091F5
:100AF000CB01F091CC011082E091CD01F091CE01BB
:100B00008FEC80831092D701E091D301F091D40152
:100B100086E08083E091D101F091D20180818061F3
:100B20008083E091D101F091D2018081886080833F
:100B3000E091D101F091D201808180688083E091C1
:100B4000D101F091D20180818F7D808382E491E098
:100B50000E94CD0364EF71E080E090E00E941801F4
:100B60008E01095F1F4F8BE3E82E8FE1F82E8FEB8C
:100B700091E00E94AD01181619060CF002C18FEB2E
:100B800091E00E948B01D82E1A8219821C821B824E
:100B90001E821D828F831886F80101900020E9F7DC
:100BA00031975F01A01AB10AB501CE0101960E94EA
:100BB000E703811105C0CE0101960E94A60307C07C
:100BC000BE82AD82B80189819A810E94FA08188696
:100BD0001F821A8619861C861B866EE070E0C8018B
:100BE0000E94E703811104C0C8010E94A6030AC045
:100BF0008EE090E09C878B8764E671E08F8198851A
:100C00000E94FA088D819E8189809A8081149104C6
:100C100009F4BAC00097B1F0AB84BC84A80EB91E29
:100C2000B501C8010E94E703882309F4ADC02F81F4
:100C300038858B859C85B401820F931F0E94FA082A
:100C4000BC86AB864B855C856F8178858FEB91E0A8
:100C50000E94520164E271E08FEB91E00E94B803C0
:100C60008F8198850E949D0789819A810E949D07A6
:100C700064E170E080E090E00E94180181E00E9451
:100C8000F402C7010197F1F784E691E00E94E003C6
:100C900041E06D2D8CE592E00E94A102E0916F028F
:100CA000E23010F4E15001C0E1E0F0E0E45AFD4F21
:100CB000848980680E94F40286E4D8120AC08AE718
:100CC00091E00E94E00383E791E00E94CD0361E0A0
:100CD00026C082E4D81217C089E891E00E94E003A0
:100CE00082E891E00E94CD0361E085E00E94A600C9
:100CF00060E084E00E94A60061E087E00E94A60018
:100D000060E086E03BC08CE4D81212C089E991E033
:100D10000E94E00382E991E00E94CD0360E084E05C
:100D20000E94A60060E085E00E94A60061E021C06C
:100D300082E5D8120AC08EE991E00E94E00384EABD
:100D400091E00E94CD0361E00CC083E5D8120FCF83
:100D500081EB91E00E94E00381EB91E00E94CD03E2
:100D600060E084E00E94A60060E085E00E94A600AA
:100D700060E086E00E94A60060E087E00E94A60096
:100D8000F6CE0E945402F3CEC8010E94A6035ACFA9
:100D90002F923F924F925F926F927F928F929F928B
:100DA000AF92BF92CF92DF92EF92FF920F931F9379
:100DB000CF93DF93CDB7DEB7CA1BDB0B0FB6F8942A
:100DC000DEBF0FBECDBF09942A88398848885F846A
:100DD0006E847D848C849B84AA84B984C884DF80DB
:100DE000EE80FD800C811B81AA81B981CE0FD11DBF
:100DF0000FB6F894DEBF0FBECDBFED010895EE0F24
:100E0000FF1F0590F491E02D09940F931F93CF934A
:100E1000DF938230910510F482E090E0E091760259
:100E2000F091770220E030E0A0E0B0E0309719F1D7
:100E3000408151810281138148175907C8F08417F6
:100E4000950769F4109731F012960C931297139648
:100E50001C9327C0009376021093770222C02115BD
:100E6000310519F04217530718F49A01BD01EF013B
:100E7000DF01F801DBCF21153105F9F0281B390B13
:100E80002430310580F48A819B816115710521F040
:100E9000FB019383828304C0909377028093760250
:100EA000FE01329644C0FE01E20FF31F819391933D
:100EB00022503109398328833AC02091740230913D
:100EC0007502232B41F420910201309103013093EC
:100ED00075022093740220910001309101012115C7
:100EE000310541F42DB73EB7409104015091050101
:100EF000241B350BE0917402F0917502E217F307A1
:100F0000A0F42E1B3F0B2817390778F0AC014E5F79
:100F10005F4F2417350748F04E0F5F1F509375023F
:100F2000409374028193919302C0E0E0F0E0CF011E
:100F3000DF91CF911F910F910895CF93DF93009789
:100F400009F481C0FC01329713821282A0917602CB
:100F5000B0917702109781F420813181820F931F25
:100F600020917402309175022817390751F5F093DA
:100F70007502E093740267C0ED0120E030E0CE1707
:100F8000DF0740F44A815B819E0141155105F1F074
:100F9000EA01F5CFD383C28340815181840F951F2D
:100FA000C817D90759F488819981840F951F029633
:100FB000918380838A819B8193838283211531056C
:100FC00029F4F0937702E09376023DC0E901FB83B8
:100FD000EA8349915991C40FD51FEC17FD0761F4BD
:100FE00080819181840F951F0296E90199838883FE
:100FF000828193819B838A83E0E0F0E012968D9159
:101000009C911397009719F0FD01DC01F7CF8D91AA
:101010009C9111979D012E5F3F4F820F931F20914E
:101020007402309175022817390769F4309729F452
:10103000109277021092760202C013821282B0934D
:101040007502A0937402DF91CF910895A0E0B0E003
:10105000ECE2F8E00C94CC06EC01009721F4CB0113
:101060000E940507B4C0FC01E60FF71F9C01225047
:101070003109E217F30708F4A8C0D9010D911C91BA
:10108000119706171707B0F00530110508F49BC03B
:10109000C80104978617970708F495C002501109F4
:1010A000061B170B019311936D937C93CF010E9444
:1010B0009D0789C05B01A01AB10A4C01800E911EE8
:1010C000A0917602B0917702612C712CE12CF12C69
:1010D000109709F446C08D919C911197A815B905F8
:1010E000B1F56C0142E0C40ED11CCA14DB0478F1E6
:1010F0004C018A189B08640142E0C40ED11C129670
:10110000BC9012971396AC91B5E0CB16D10440F089
:10111000B282A38391828082D9016D937C9309C0AE
:101120000E5F1F4F800F911FF90191838083EB2D7C
:10113000FA2FE114F10431F0D7011396FC93EE93EA
:10114000129741C0F0937702E09376023CC0681694
:10115000790608F43C017D0112960D90BC91A02DFA
:10116000B7CF809174029091750288169906E1F4C8
:1011700066167706C8F480910001909101010097EE
:1011800041F48DB79EB74091040150910501841B35
:10119000950BE817F907C8F4F0937502E093740211
:1011A000F901718360830FC0CB010E9405077C01A8
:1011B000009759F0A801BE010E94F108CE010E94DB
:1011C0009D07C70104C0CE0102C080E090E0CDB70A
:1011D000DEB7EEE00C94E80681E090E0F8940C9421
:1011E0000109FB01DC0102C001900D924150504009
:1011F000D8F70895FB01DC0101900D920020E1F782
:061200000895F894FFCFF1
:1012060000007802800000000000E50152017C0128
:101216003202AD018B019F01000000009C035201C8
:10122600A303A2030D0A0057454C434F4D452054D6
:101236004F20494F5400424F4F5443414D50204D8B
:10124600420057656C636F6D6520546F20526F6264
:101256006F74204E617669676174696F6E205061A4
:101266006E656C00446174612052656365697665DC
:10127600643A004D6F76696E6720466F72776172C9
:1012860064004D6F76696E67204261636B776172A9
:1012960064004D6F76696E67204C6566740052690E
:1012A600676874004D6F76696E67205249474854E7
:0612B6000053746F70008C
:00000001FF
